:100000000C942A000C941F010C9448010C94470096
:100010000C9447000C9447000C9447000C94470044
:100020000C9447000C9447000C9447000C94470034
:100030000C9447000C9447000C9447000C94470024
:100040000C9447000C9447000C9447000C94470014
:100050000C94470011241FBECFE5D8E0DEBFCDBF12
:1000600011E0A0E6B0E0E4E0F2E102C005900D92FC
:10007000A430B107D9F711E0A4E0B1E001C01D92AE
:10008000A331B107E1F70E949F070C9400090C947B
:1000900000000F931F93CF93DF9300D000D000D0C8
:1000A000CDB7DEB7142F49835A836B837C838D834E
:1000B0009E83763098F5A72FB0E0A05ABF4F0C91E1
:1000C00089E390E0612F40E00E94B00011501730AA
:1000D00018F5E12FF0E0EA59FF4F80819B819130C4
:1000E00009F408609A81992399F480649E81913083
:1000F00009F4806287B906B9379A26960FB6F89444
:10010000DEBF0FBECDBFDF91CF911F910F9108953C
:10011000923061F7806CEACF80E0E0CF00E0D0CF92
:10012000CF93DF9300D000D000D0CDB7DEB74983A6
:100130005A836B837C838D839E83369A369BFECF56
:1001400084B190E045B1342F20E0822B932B26968A
:100150000FB6F894DEBF0FBECDBFDF91CF910895EB
:10016000FC01413019F1413078F4218181E090E0C7
:1001700002C0880F991F6A95E2F780952823218392
:100180009281982392830895423009F00895218145
:1001900081E090E002C0880F991F6A95E2F7282B52
:1001A000218392818095892382830895218181E032
:1001B00090E002C0880F991F6A95E2F7982F9095FA
:1001C000922391839281982B92830895FC0144237A
:1001D00061F4228181E090E002C0880F991F6A9546
:1001E000E2F780958223828308954130E9F72281E6
:1001F00081E090E002C0880F991F6A95E2F7282BF2
:1002000022830895FC01208181E090E0062E02C047
:10021000880F991F0A94E2F730E08223932302C0EB
:10022000959587956A95E2F70895FC016183089595
:10023000FC0162830895FC01828180E008951F9291
:100240000F920FB60F9211242F933F934F935F930A
:100250006F937F938F939F93AF93BF93EF93FF938E
:10026000E0910801F0910901309709F00995FF919B
:10027000EF91BF91AF919F918F917F916F915F911E
:100280004F913F912F910F900FBE0F901F90189597
:100290001F920F920FB60F9211242F933F934F93FB
:1002A0005F936F937F938F939F93AF93BF93EF93DE
:1002B000FF93E0910601F0910701309709F009954D
:1002C000FF91EF91BF91AF919F918F917F916F912E
:1002D0005F914F913F912F910F900FBE0F901F9004
:1002E00018958130F9F0813078F46130A1F16130F6
:1002F00008F043C085B78E7F85BF85B78D7F85BFEA
:100300008BB780648BBF0895823009F00895623006
:10031000B9F0633019F484B7806484BF8BB780620E
:100320008BBF0895613081F06130E0F485B78B7F39
:1003300085BF85B7877F85BF8BB780688BBF0895E2
:1003400084B78F7B84BFEACF85B7886085BF85B7C8
:100350008B7F85BFF1CF85B7816085BF85B78D7FE6
:1003600085BFCECF6230E1F0633031F785B788606A
:1003700085BF85B7846085BFDFCF623051F06330C1
:1003800009F0BECF85B7816085BF85B7826085BF24
:10039000B7CF85B78E7F85BF85B7826085BFB0CF69
:1003A00085B7877F85BF85B7846085BFC5CF662346
:1003B000E9F47150743080F120E0873009F47DC099
:1003C000883008F04DC0833009F471C0843009F4DE
:1003D0006BC0813009F460C0913009F44AC092309A
:1003E00039F123BF8FB780688FBF08956130D1F78F
:1003F00071507430B8F020E0843009F464C0853066
:10040000E0F4823009F465C0833008F042C08130E6
:10041000F1F42160297F1BC0E72FF0E0E359FF4F83
:100420002081CBCFE72FF0E0EF58FF4F2081E4CFC2
:1004300089B7826089BF23BFD5CF863009F446C013
:10044000863020F18730E1F1883009F4276091305F
:1004500031F1923099F025BD8FB780688FBF089534
:10046000893041F1893078F08A3009F0B5CF2760C2
:10047000B3CF89B7816089BF23BFB4CF89B7806804
:1004800089BF25BDE9CF287F2560A6CF23602B7FBC
:10049000DECF287F2260DBCF2160297F9DCF89B707
:1004A000806489BF25BDD8CF23602B7F95CF287F5F
:1004B000226092CF2E7F26608FCF2C7F24608CCF3E
:1004C0002E7F2660C4CF2C7F2460C1CF287F25607B
:1004D000BECF88E082BD287F2560B9CF662311F4A6
:1004E0004CBF0895613009F0089543BD0895CF933E
:1004F000C42F662379F42CBF86E390E063E042E0EA
:100500000E94B000C230E1F0C33041F1C13069F166
:10051000CF9108956130E1F723BD80E390E067E07B
:1005200042E00E94B000C23039F1C33081F0C130E6
:1005300079F785B58F7D85BD85B5806185BDE8CFAF
:1005400083B7806283BF83B78F7E83BFE1CF85B5DA
:10055000806285BD85B5806185BDDACF83B7806255
:1005600083BF83B7806183BFD3CF83B78F7D83BFC2
:1005700083B7806183BFCCCF85B5806285BD85B5EB
:100580008F7E85BDC5CFCF93C42F6623A9F42CBF22
:1005900086E390E063E042E00E94B000C43019F1CD
:1005A000C53011F0CC2331F483B78F7E83BF83B77E
:1005B000806283BFCF9108956130E1F723BD80E36E
:1005C00090E067E042E00E94B000C430A1F0C53086
:1005D00011F0CC2379F785B58F7E85BD85B5806216
:1005E00085BDCF91089583B7806183BF83B7806253
:1005F00083BFCF91089585B5806185BD85B5806243
:1006000085BDCF910895CF93C42F6623A9F42CBF45
:1006100086E390E063E042E00E94B000C63021F043
:10062000C73049F1CC2331F483B78F7E83BF83B7C2
:10063000806283BFCF9108956130E1F723BD80E3ED
:1006400090E067E042E00E94B000C63021F0C73081
:1006500051F0CC2379F785B58F7E85BD85B5806255
:1006600085BDCF91089585B5806185BD85B58062D2
:1006700085BDCF91089583B7806183BF83B78062C2
:1006800083BFCF910895282FCB01622F40E00E94B5
:10069000B0000895282FCB01622F0E940201089517
:1006A000D898D998EFE9FFE03197F1F700C0000042
:1006B000DA9AEFE9FFE03197F1F700C000009BB351
:1006C0009F709BBB2BB3982F907F922B9BBBEFE926
:1006D000FFE03197F1F700C00000DA98EFE9FFE0A2
:1006E0003197F1F700C00000DA9AEFE9FFE03197A7
:1006F000F1F700C000009BB39F709BBB9BB382953A
:10070000807F892B8BBB8FE99FE00197F1F700C0B9
:100710000000DA98EFE9FFE03197F1F700C0000040
:1007200008958AB3806F8ABB8AB387608ABB82E0F0
:100730000E94500388E20E9450038CE00E94500304
:1007400081E00E945003089581E00E9450030895C3
:10075000D89AD998EFE9FFE03197F1F700C000008F
:10076000DA9AEFE9FFE03197F1F700C000009BB3A0
:100770009F709BBB2BB3982F907F922B9BBBEFE975
:10078000FFE03197F1F700C00000DA98EFE9FFE0F1
:100790003197F1F700C00000DA9AEFE9FFE03197F6
:1007A000F1F700C000009BB39F709BBB9BB3829589
:1007B000807F892B8BBB8FE99FE00197F1F700C009
:1007C0000000DA98EFE9FFE03197F1F700C0000090
:1007D0000895CF93DF93EC018881882331F021962F
:1007E0000E94A80389918823D9F7DF91CF910895BA
:1007F0008130A1F0813028F4862F80680E94500358
:100800000895823081F0833021F080E80E94500307
:100810000895862F806D0E9450030895862F806C66
:100820000E9450030895862F80690E945003089506
:100830000F931F93CF93DF93CDB7DEB765970FB6B6
:10084000F894DEBF0FBECDBFDC01CB01BE016F5FF0
:100850007F4F4AE050E00E94C6088981882351F00A
:100860008E010E5F1F4F0E94A803F80181918F0136
:100870008823C9F765960FB6F894DEBF0FBECDBFCB
:10088000DF91CF911F910F910895CF93DF93EC01EA
:100890006830F8F4862F80640E94500388810E949B
:1008A000A80389810E94A8038A810E94A8038B81E2
:1008B0000E94A8038C810E94A8038D810E94A80336
:1008C0008E810E94A8038F810E94A80382E00E946B
:1008D0005003DF91CF9108950895CF93DF9300D017
:1008E0000F92CDB7DEB769837A83682F8B838981B6
:1008F0009A8140E00E94B0000F900F900F90DF911E
:10090000CF910895CF93DF9300D00F92CDB7DEB78C
:1009100069837A83682F8B8389819A810E9402017F
:100920000F900F900F90DF91CF9108952FB5226017
:100930002FBD2EB528602EBD2EB520612EBD28E816
:1009400033E137BD26BD2EB521602EBD2EB5226008
:100950002EBD4134E9F0423409F0089520E030E042
:100960004AE753E40E943B080E94A907DC01CB013F
:1009700099BD88BD8FB580628FBD80E390E064E053
:1009800042E00E94B00085E38A95F1F700000895E7
:1009900020E030E04AE753E40E943B080E94A907A8
:1009A000DC01CB019BBD8ABD8FB580688FBD80E324
:1009B00090E065E042E00E94B00085E38A95F1F79F
:1009C0000000089580910A01882329F180910A018D
:1009D000813009F0089515BC08B606FC2EC064B538
:1009E00070E080E090E00E94D7072BEB38EB4DE8F9
:1009F0005FE30E943B080E94A407DC01CB019093B7
:100A00000F0180930E0181E063E00E94710110925A
:100A10000A0114BC08956091750070917600809170
:100A20007700909178000E94D70181E062E00E94F7
:100A3000710181E080930A01089564B570E061500E
:100A40007F4F882777FD8095982F0E94D7072BEB43
:100A500038EB4DE85FE30E943B080E94A407DC01ED
:100A6000CB0190930F0180930E0188B7806488BFFB
:100A7000CACF80910B01882329F180910B0181302D
:100A800009F0089513BE08B600FC2EC062B770E0EE
:100A900080E090E00E94D7072BEB38EB4DE85FE356
:100AA0000E943B080E94A407DC01CB0190930D013A
:100AB00080930C0180E063E00E94710110920B01B1
:100AC00012BE08956091790070917A0080917B0048
:100AD00090917C000E94D70180E062E00E94710149
:100AE00081E080930B01089562B770E061507F4F01
:100AF000882777FD8095982F0E94D7072BEB38EB3E
:100B00004DE85FE30E943B080E94A407DC01CB0193
:100B100090930D0180930C0188B7816088BFCACF84
:100B20001F93CF93DF93262F682F192FD22FC72F14
:100B3000822F972F42E00E94B0008D2F9C2F612FB3
:100B400040E00E94B0008FEC97E00197F1F700C001
:100B50000000123099F0133051F481E063E00E94FC
:100B6000710182EE94E090930701809306018FB7A4
:100B700080688FBFDF91CF911F91089580E063E07F
:100B80000E94710189E395E0909309018093080127
:100B90008FB780688FBFDF91CF911F9108950F931A
:100BA0001F93CF93DF93182F092FD62FC72F862F90
:100BB000972F612F41E00E94E60080E58A95F1F7CA
:100BC0008D2F9C2F612F40E00E94E600023049F0FB
:100BD000033081F080E090E0DF91CF911F910F9181
:100BE000089580910C0190910D01DF91CF911F919B
:100BF0000F91089580910E0190910F01DF91CF9197
:100C00001F910F9108950E949103609100017091CE
:100C10000101809102010E946D046091FD007091BC
:100C2000FE008091FF000E946D046091FA007091B7
:100C3000FB008091FC000E946D046091F6007091B1
:100C4000F7008091F8009091F9000E949005609162
:100C5000F2007091F3008091F4009091F5000E94F1
:100C6000900560E070E080EC9FE341E40E94960410
:100C700060E070E080EC9FE342E40E9496040895F7
:100C80006091F6007091F7008091F8009091F90062
:100C90000E94CF05893C910518F1809110018330A5
:100CA00008F4E0C0833001F16091F6007091F70024
:100CB0008091F8009091F9000E94CF058B3091054A
:100CC00008F086C06091F2007091F3008091F4000A
:100CD0009091F5000E94CF058B309105E8F50895BD
:100CE00080911001833001F76091F6007091F70058
:100CF0008091F8009091F9000E94CF05883C910501
:100D000008F0E0C00E94A40319C06091F200709145
:100D1000F3008091F4009091F5000E94CF05893C8A
:100D2000910580F28BE990E00E94E90381E060E0A8
:100D30000E94F80389EA90E00E94E9036091F600BE
:100D40007091F7008091F8009091F9000E94CF0512
:100D5000883C9105D0F6B6CF6091F2007091F30017
:100D60008091F4009091F5000E94CF05893C910597
:100D7000A8F0B0C06091F2007091F3008091F4008F
:100D80009091F5000E94CF05893C9105A0F460E0A8
:100D900070E080E89FE342E40E9496046091F200D4
:100DA0007091F3008091F4009091F5000E94CF05BE
:100DB0008B309105F8F680911001815080931001DD
:100DC00060E070E080EC9FE342E40E9496040895A6
:100DD0006091F6007091F7008091F8009091F90011
:100DE0000E94CF05893C910508F06CCF80911001DD
:100DF000833008F067CF60E070E080E090E441E489
:100E00000E9496046091F6007091F7008091F800BE
:100E10009091F9000E94CF058B30910508F482C0B3
:100E20006091F6007091F7008091F8009091F900C0
:100E30000E94CF05893C910508F074C060910001C3
:100E400070910101809102010E948204882309F0BF
:100E500042C081E060E00E94F80389EB90E00E94CC
:100E6000E903D0CF0E94A4031FC0809110018330FA
:100E700008F028CF6091F2007091F3008091F400A7
:100E80009091F5000E94CF05893C910508F41ACF96
:100E90008DE790E00E94E90381E060E00E94F803A2
:100EA0008AE890E00E94E9036091F6007091F700F3
:100EB0008091F8009091F9000E94CF05893C91053E
:100EC000A0F600CF60E070E080EC9FE341E40E9478
:100ED000960418CF08956091FD007091FE008091F6
:100EE000FF000E948204882349F481E060E00E94B0
:100EF000F8038CEC90E00E94E90384CF6091FA0043
:100F00007091FB008091FC000E948204882309F00C
:100F100079CF81E060E00E94F8038FED90E00E94BD
:100F2000E90370CF809110018F5F8093100160E022
:100F300070E080EC9FE341E40E949604C3CE0E94DF
:100F400003060E944006FDCF04D06894B1118DC005
:100F5000089570D088F09F5790F0B92F9927B75116
:100F6000A0F0D1F0660F771F881F991F1AF0BA956D
:100F7000C9F712C0B13081F077D0B1E0089574C0E4
:100F8000672F782F8827B85F39F0B93FCCF3869563
:100F900077956795B395D9F73EF4909580957095C0
:100FA00061957F4F8F4F9F4F0895E89409C097FB3D
:100FB0003EF490958095709561957F4F8F4F9F4F30
:100FC0009923A9F0F92F96E9BB279395F695879574
:100FD00077956795B795F111F8CFFAF4BB0F11F437
:100FE00060FF1BC06F5F7F4F8F4F9F4F16C08823DE
:100FF00011F096E911C0772321F09EE8872F762F14
:1010000005C0662371F096E8862F70E060E02AF054
:101010009A95660F771F881FDAF7880F9695879540
:1010200097F9089557FD9058440F551F59F05F3FA9
:1010300071F04795880F97FB991F61F09F3F79F0FA
:1010400087950895121613061406551FF2CF46957C
:10105000F1DF08C0161617061806991FF1CF8695FE
:101060007105610508940895E894BB2766277727E2
:10107000CB0197F908950BD078C069D028F06ED0D5
:1010800018F0952309F05AC05FC01124EECFCADFD3
:10109000A0F3959FD1F3950F50E0551F629FF0018B
:1010A000729FBB27F00DB11D639FAA27F00DB11DE4
:1010B000AA1F649F6627B00DA11D661F829F22276D
:1010C000B00DA11D621F739FB00DA11D621F839FF4
:1010D000A00D611D221F749F3327A00D611D231FCA
:1010E000849F600D211D822F762F6A2F11249F5718
:1010F00050408AF0E1F088234AF0EE0FFF1FBB1F3B
:10110000661F771F881F91505040A9F79E3F5105D9
:1011100070F014C0AACF5F3FECF3983EDCF38695E5
:1011200077956795B795F795E7959F5FC1F7FE2B84
:10113000880F911D9695879597F9089597F99F6760
:1011400080E870E060E008959FEF80EC089500244F
:101150000A941616170618060906089500240A941C
:1011600012161306140605060895092E0394000CA2
:1011700011F4882352F0BB0F40F4BF2B11F460FF31
:1011800004C06F5F7F4F8F4F9F4F0895FB019F01FA
:10119000423074F0453264F4642F77270E94EC08E3
:1011A000805D8A330CF0895D8193CB010097A1F7B4
:1011B0001082C9010C94DC08DC01FC01672F7191DD
:1011C0007723E1F7329704C07C916D93708362912D
:1011D000AE17BF07C8F30895AA1BBB1B51E107C098
:1011E000AA1FBB1FA617B70710F0A61BB70B881FB7
:1011F000991F5A95A9F780959095BC01CD01089546
:04120000F894FFCF90
:101204000706050403020102030405060708004853
:10121400400800484001000800000008002057650D
:101224006C636F6D65205E5F5E002020323448720F
:101234002F377765656B7320202000202020536FA3
:101244007272792121202020004761726167652034
:1012540046756C6C2020202000706C6561736520DD
:10126400676F20746F20503120202000706C6561FE
:10127400736520676F20746F205032202020007027
:101284006C6561736520676F20746F205033202074
:101294002000300000023000010336000236000155
:0412A4003600000010
:00000001FF
